:100000000C943A000C94C0000C94C0000C94C000F6
:100010000C94C0000C94C0000C94C0000C94C00060
:100020000C94C0000C94C0000C94C0000C94C00050
:100030000C94C0000C94C0000C94C0000C94C00040
:100040000C94C0000C94C0000C94C0000C94C00030
:100050000C94C0000C94C0000C94C0000C94C00020
:100060000C94C0000C94C0000100010A000184013E
:100070000A010E8011241FBECFEFD8E0DEBFCDBF36
:10008000E8E6F0E040E017C0B591A59135912591E3
:10009000059107FD0CC095918591EF01F92FE82F8F
:1000A00005900D92A217B307D9F7FE0104C01D9267
:1000B000A217B307E1F7E437F40731F70E946400B1
:0800C0000C946200F894FFCFDC
:1000C8008EEF84B917B818B815B815BE41E029E005
:1000D80030E0189B09C08FE19EE40197F1F700C05A
:1000E800000040930D0111C018990FC080910D01B7
:1000F800882359F010920D0180910A0190910B010B
:10010800019690930B0180930A01309B09C08FE1FF
:100118009EE40197F1F700C0000040930C0111C064
:1001280030990FC080910C01882359F010920C016E
:1001380080910A0190910B01019790930B01809394
:100148000A0180910A0190910B018A3091052CF0E7
:1001580010920B0110920A0106C0992324F43093DF
:100168000B0120930A01E0910A01F0910B01E05084
:08017800FF4F808185B9ADCF76
:040180000C940000DB
:0A018400FD60DAF266B6BEE0FEF69A
:00000001FF
