:100000000C9437000C9490000C9490000C94900089
:100010000C9490000C9490000C9490000C94900020
:100020000C9490000C9490000C9490000C94900010
:100030000C9490000C9490000C9490000C94900000
:100040000C9490000C9490000C9490000C949000F0
:100050000C9490000C9490000C9490000C949000E0
:100060000C9490000C949000010001028000112477
:100070001FBECFEFD8E0DEBFCDBFE8E6F0E040E046
:1000800017C0B591A59135912591059107FD0CC03B
:1000900095918591EF01F92FE82F05900D92A21708
:1000A000B307D9F7FE0104C01D92A217B307E1F709
:1000B000ED36F40731F70E9461000C945F00F8946C
:0200C000FFCF70
:1000C20084E084B981E085BF15B891E0189B09C02E
:1000D200EFE3FCE93197F1F700C0000090930101D2
:1000E20004C080910101882329F0189903C02A9A3B
:1000F20010920101199B09C0EFE3FCE93197F1F776
:1001020000C000009093000104C080910001882388
:0E011200E9F21999DBCF2A9810920001D7CF9D
:040120000C9400003B
:00000001FF
