:100000000C9434000C945B000C945B000C945B002B
:100010000C945B000C9440000C945B000C945B000F
:100020000C945B000C945B000C945B000C945B00E4
:100030000C945B000C945B000C945B000C945B00D4
:100040000C945B000C945B000C945B000C945B00C4
:100050000C945B000C945B000C945B000C945B00B4
:100060000C945B000C945B0011241FBECFEFD8E012
:10007000DEBFCDBF0E944E000C943E00F894FFCF2F
:100080001F920F920FB60F9211244A99289A4B99FA
:0C00900028980F900FBE0F901F9018953D
:10009C008FEF84B915B81AB81BB884E08093680048
:0A00AC008CE080936D007894FFCF84
:0400B6000C940000A6
:00000001FF
